:100000000C9435000C945D000C945D000C945D0024
:100010000C945D000C945D000C945D000C945D00EC
:100020000C945D000C945D000C945D000C945D00DC
:100030000C945D000C945D000C945D000C945D00CC
:100040000C94BA030C945D000C9495000C945D0024
:100050000C945D000C945D000C945D000C945D00AC
:100060000C945D000C945D00400211241FBECFEF84
:10007000D4E0DEBFCDBF11E0A0E0B1E0EEE8F9E0F2
:1000800002C005900D92A431B107D9F711E0A4E1A7
:10009000B1E001C01D92A43BB107E1F710E0CAE650
:1000A000D0E004C02297FE010E94C104C836D107E7
:1000B000C9F70E947A020C94C5040C94000080E0F9
:1000C0000E947300BC0188E991E04AE050E00E9480
:1000D0009F03089588E991E040E855E260E070E010
:1000E0000E94D2000895982F8E3008F09E5097708D
:1000F000809100018295880F880F807C892B8093E6
:100100007C0080917A00806480937A0080917A00EC
:1001100086FDFCCF2091780040917900942F80E0FB
:1001200030E0282B392BC90108951F920F920FB68A
:100130000F9211242F933F934F935F936F937F936D
:100140008F939F93AF93BF93EF93FF934091C6001C
:10015000E0919401F0919501CF01019660E870E083
:100160000E945B049C018091960190919701281751
:10017000390739F0EC5EFE4F4083309395012093B0
:100180009401FF91EF91BF91AF919F918F917F91DA
:100190006F915F914F913F912F910F900FBE0F90F4
:1001A0001F9018955F926F927F928F929F92AF925D
:1001B000BF92CF92DF92EF92FF920F931F93CF9354
:1001C000DF93EC013A014B01413482E458078FE0A0
:1001D000680780E078070CF07FC060E874E88EE183
:1001E00090E0A40193010E949004215030404040CF
:1001F0005040CA01B90122E030E040E050E00E94E6
:10020000900459016A01A601950120953095409509
:10021000509594E0220F331F441F551F9A95D1F734
:1002200060E074E284EF90E00E949004CA01B9019A
:100230002FEF30E040E050E00E943C04A401930125
:100240000E949004C90181509F4F181619061CF492
:10025000522E5A9403C055245394521A60E079E008
:100260008DE390E0A40193010E949004215030405E
:1002700040405040CA01B90122E030E040E050E087
:100280000E949004209530954095509583E0220F70
:10029000331F441F551F8A95D1F760E074E284EF45
:1002A00090E00E949004CA01B9012FEF30E040E0D5
:1002B00050E00E943C04A40193010E949004C901F3
:1002C00081509F4F181619061CF4822F815002C0CE
:1002D00081E0821B851500F5E885F98581E090E0D5
:1002E0000A8802C0880F991F0A94E2F7808360E0B1
:1002F00079E08DE390E0A40193010E9490042150E5
:10030000304040405040CA01B90122E030E040E0B6
:1003100050E00E94900404C0E885F98510829501A0
:10032000EC81FD813083EE81FF812083EA85FB85AE
:10033000208141E050E0CA010E8402C0880F991F5D
:100340000A94E2F7282B2083EA85FB852081CA01E5
:100350000F8402C0880F991F0A94E2F7282B20838C
:10036000EA85FB858081088802C0440F551F0A94E6
:10037000E2F7842B8083DF91CF911F910F91FF9043
:10038000EF90DF90CF90BF90AF909F908F907F9035
:100390006F905F900895DC011296ED91FC91139798
:1003A000E058FF4F8191919180589F4F208131817A
:1003B000821B930B60E870E00E945B040895DC01EF
:1003C0001296ED91FC911397EE57FF4F20813181EA
:1003D00092918291E058F0408217930719F42FEF21
:1003E0003FEF05C0E20FF31F8081282F30E0C901E5
:1003F0000895CF93DF93DC011296ED91FC91139752
:10040000EF01CE57DF4F48815981E058FF4F80817F
:100410009181E058F0408417950719F42FEF3FEFD2
:100420000CC0E40FF51F2081CA01019660E870E05E
:100430000E945B049983888330E0C901DF91CF91EA
:100440000895DC011296ED91FC911397EE57FF4F42
:1004500080819181929382930895FC01A085B1855A
:1004600021898C9190E0022E02C0959587950A947F
:10047000E2F780FFF6CF0484F585E02D60830895D0
:1004800085E091E0909399018093980184E191E057
:1004900090939B0180939A0185EC90E090939D014D
:1004A00080939C0184EC90E090939F0180939E0147
:1004B00080EC90E09093A1018093A00181EC90E00A
:1004C0009093A3018093A20186EC90E09093A50104
:1004D0008093A40184E08093A60183E08093A70128
:1004E00087E08093A80185E08093A90181E0809353
:1004F000AA0108950E9402040E946A000E945F00FF
:10050000FDCF0F931F93CF93DF938C01EB0109C0B5
:100510002196D801ED91FC910190F081E02DC80168
:10052000099568816623A1F7DF91CF911F910F9103
:100530000895EF92FF920F931F93CF93DF938C0157
:100540007B01EA010CC0D7016D917D01D801ED91CD
:10055000FC910190F081E02DC80109952197209729
:1005600091F7DF91CF911F910F91FF90EF90089538
:100570002F923F924F925F926F927F928F929F92B3
:10058000AF92BF92CF92DF92EF92FF920F931F93A1
:10059000DF93CF93CDB7DEB7A0970FB6F894DEBF49
:1005A0000FBECDBF1C016A017B01411551056105DC
:1005B000710549F440E350E060E070E020E030E095
:1005C0000E94520356C0882499245401422E552477
:1005D0006624772401E010E00C0F1D1F080D191D83
:1005E000C701B601A30192010E946E04F801608365
:1005F0000894811C911CA11CB11CC701B601A30168
:1006000092010E946E04C901DA016C017D01C114DE
:10061000D104E104F104F1F681E0E82EF12CEC0EB6
:10062000FD1EE80CF91C3E010894611C711CD501EB
:10063000C4010197A109B1096C01C818D90816C0F5
:10064000F601EE0DFF1D40814A3010F4405D01C0FF
:10065000495C552747FD5095652F752FC10120E056
:1006600030E00E9452030894E108F1086E147F0400
:1006700039F7A0960FB6F894DEBF0FBECDBFCF916D
:10068000DF911F910F91FF90EF90DF90CF90BF907F
:10069000AF909F908F907F906F905F904F903F9022
:1006A0002F900895EF92FF920F931F93CF93DF93B4
:1006B000EC017A018B012115310541F4E881F981C2
:1006C0000190F081E02D642F09951BC02A3031057F
:1006D000B1F477FF10C04DE250E060E070E020E040
:1006E00030E00E94520310950095F094E094E11CD4
:1006F000F11C011D111DCE01B801A7012AE00E94C5
:10070000B802DF91CF911F910F91FF90EF90089564
:100710000F931F938C014DE050E060E070E020E00B
:1007200030E00E945203C8014AE050E060E070E00F
:1007300020E030E00E9452031F910F910895CF9264
:10074000DF92EF92FF920F931F938C016B019A013E
:10075000EE24D7FCE094FE2CB701A6010E945203C0
:10076000C8010E9488031F910F91FF90EF90DF90C6
:10077000CF9008951F920F920FB60F9211242F93CE
:100780003F938F939F93AF93BF938091AF019091CD
:10079000B001A091B101B091B2013091B3010196C5
:1007A000A11DB11D232F2D5F2D3720F02D57019650
:1007B000A11DB11D2093B3018093AF019093B001AF
:1007C000A093B101B093B2018091AB019091AC01C3
:1007D000A091AD01B091AE010196A11DB11D809314
:1007E000AB019093AC01A093AD01B093AE01BF916A
:1007F000AF919F918F913F912F910F900FBE0F90CE
:100800001F901895789484B5826084BD84B581600A
:1008100084BD85B5826085BD85B5816085BDEEE608
:10082000F0E0808181608083E1E8F0E08081826097
:100830008083808181608083E0E8F0E08081816056
:100840008083E1EBF0E0808184608083E0EBF0E086
:10085000808181608083EAE7F0E08081846080832A
:1008600080818260808380818160808380818068D4
:1008700080831092C1000895629FD001739FF001A0
:10088000829FE00DF11D649FE00DF11D929FF00D20
:10089000839FF00D749FF00D659FF00D9927729F57
:1008A000B00DE11DF91F639FB00DE11DF91FBD01E2
:1008B000CF011124089597FB092E07260AD077FD52
:1008C00004D049D006D000201AF4709561957F4F6E
:1008D0000895F6F7909581959F4F0895A1E21A2EFD
:1008E000AA1BBB1BFD010DC0AA1FBB1FEE1FFF1FD4
:1008F000A217B307E407F50720F0A21BB30BE40B24
:10090000F50B661F771F881F991F1A9469F760956A
:100910007095809590959B01AC01BD01CF01089524
:1009200097FB092E05260ED057FD04D0D7DF0AD03D
:10093000001C38F450954095309521953F4F4F4F0E
:100940005F4F0895F6F790958095709561957F4F6C
:100950008F4F9F4F0895AA1BBB1B51E107C0AA1FD1
:10096000BB1FA617B70710F0A61BB70B881F991F50
:100970005A95A9F780959095BC01CD010895EE0F89
:0E098000FF1F0590F491E02D0994F894FFCF2D
:10098E0001000000002D0281029902CB01F9012124
:04099E0002DF010073
:00000001FF
