:100000000C9462000C948A000C948A000C948A0070
:100010000C948A000C948A000C948A000C948A0038
:100020000C948A000C948A000C948A000C941C0393
:100030000C948A000C948A000C948A000C948A0018
:100040000C94D9030C948A000C948A000C948A00B6
:100050000C948A000C948A000C948A000C948A00F8
:100060000C948A000C948A000000000024002700F1
:100070002A0000000000250028002B0000000000DE
:1000800023002600290004040404040404040202DA
:100090000202020203030303030301020408102007
:1000A0004080010204081020010204081020000012
:1000B0000007000201000003040600000000000029
:1000C0000000680111241FBECFEFD4E0DEBFCDBF1A
:1000D00011E0A0E0B1E0EEE6FCE002C005900D9278
:1000E000A230B107D9F711E0A2E0B1E001C01D9242
:1000F000A833B107E1F710E0C4ECD0E004C02297C8
:10010000FE010E943106C23CD107C9F70E9450058A
:100110000C9435060C940000FC01809102018C3097
:1001200090F480838F5F80930201815090E0FC0106
:10013000EE0FFF1FE80FF91FE65FFE4F88EB9BE015
:100140009283818308958FEF80830895FC018091CD
:1001500002018C3090F480838F5F80930201815084
:1001600090E0FC01EE0FFF1FE80FF91FE65FFE4F66
:1001700088EB9BE09283818308958FEF80830895BD
:10018000DC018C9190E0FC01EE0FFF1FE80FF91FDE
:10019000E65FFE4F80818F7B80838C916CE00E94B4
:1001A000BF0590E0AC01440F551F480F591F440F85
:1001B000551F440F551F20E030E0C901840F951FE3
:1001C000FC01EE0FFF1FE80FF91FE65FFE4F808175
:1001D00086FD05C02F5F3F4F2C30310571F7089524
:1001E000FC0120812C3008F041C08181992787FDD6
:1001F000909548E850E0481B590B440F551F440F99
:10020000551F6417750784F08281992787FD9095A3
:1002100048E552E0481B590B440F551F440F551F2A
:10022000641775070CF4AB0142505040CA01AA276D
:1002300097FDA095BA2F74E0880F991FAA1FBB1FC6
:100240007A95D1F763E0B695A795979587956A95C6
:10025000D1F74FB7F89430E0F901EE0FFF1FE20F2E
:10026000F31FE65FFE4F928381834FBF0895FC0129
:1002700080818F3F19F420E030E016C090E0FC014F
:10028000EE0FFF1FE80FF91FE65FFE4F218132815D
:1002900083E0220F331F8A95E1F7B4E03695279566
:1002A000BA95E1F72E5F3F4FC9010895FC018081A7
:1002B00090E0FC01EE0FFF1FE80FF91FE65FFE4F15
:1002C0008081829586958695817009F081E00895F8
:1002D000809102018C3098F4809303018F5F8093AA
:1002E0000201815090E0FC01EE0FFF1FE80FF91FA3
:1002F000E65FFE4F88EB9BE09283818308958FEF4A
:10030000809303010895AF92BF92CF92DF92EF9254
:10031000FF920F931F938C010E94370100D000D0F1
:100320000196AA2797FDA095BA2FF801618177273A
:1003300067FD709528E830E0261B370B220F331F2E
:10034000220F331F442737FD4095542F62817727B2
:1003500067FD7095E8E5EE2EE2E0FE2EE61AF70A5C
:10036000EE0CFF1CEE0CFF1C0027F7FC0095102F75
:1003700064EBA62EB12CC12CD12CEDB7FEB7A18217
:10038000B282C382D482BC01CD01AA24BB24650100
:100390000E9457050F900F900F900F90CB011F9167
:1003A0000F91FF90EF90DF90CF90BF90AF900895A6
:1003B000AF92BF92CF92DF92EF92FF920F931F9373
:1003C000CF93DF93EC019B0182E0603278070CF061
:1003D00048C077FF03C020E030E005C0653B7105F1
:1003E00014F024EB30E000D000D0B901882777FD6D
:1003F0008095982F2981332727FD3095E8E8AE2E88
:10040000B12CA21AB30AAA0CBB1CAA0CBB1CCC248C
:10041000B7FCC094DC2CEA81FF27E7FDF09528E5C6
:1004200032E02E1B3F0B220F331F220F331F4427B6
:1004300037FD4095542FEDB7FEB7218332834383B8
:10044000548320E030E040E050E004EBE02EF12C5B
:10045000012D112D0E9457059B010F900F900F90B9
:100460000F90CE01B9010E94F000DF91CF911F9152
:100470000F91FF90EF90DF90CF90BF90AF900895D5
:10048000AF92BF92CF92DF92EF92FF920F931F93A2
:10049000809106010E94B4049093090180930801A1
:1004A00000D000D0AA2797FDA095BA2F23EB30E00B
:1004B00040E050E0EDB7FEB721833283438354839D
:1004C000BC01CD0120E030E040E050E0FFEFEF2E36
:1004D000F3E0FF2E012D112DAA24BB2465010E94FB
:1004E00057059B01AC0170930901609308010F90BF
:1004F0000F900F900F9083E091E0B9010E94D80116
:100500006FE070E080E090E00E9421041F910F9165
:10051000FF90EF90DF90CF90BF90AF900895CF9273
:10052000DF92EF92FF921F93CF93DF93EC01162F90
:100530007A01690188818C3008F064C0862F61E0FF
:100540000E94D604888190E0FC01EE0FFF1FE80FA7
:10055000F91FE65FFE4F1F738081807C812B8083B3
:1005600080E292E08E199F0964E070E00E94CB0562
:10057000698380E699E08C199D0964E070E00E942F
:10058000CB056A83A8818A2F6CE00E94BF05682F83
:1005900070E0AB01440F551F460F571F440F551F06
:1005A000440F551F20E030E0C901840F951FFC0166
:1005B000EE0FFF1FE80FF91FE65FFE4F808186FDFB
:1005C00015C02F5F3F4F2C30310571F724C01092BA
:1005D000800082E080938100109285001092840058
:1005E000B19A80916F00826080936F008A2F90E0B3
:1005F000FC01EE0FFF1FE80FF91FE65FFE4F808141
:10060000806480838881DF91CF911F91FF90EF906C
:10061000DF90CF900895672BD1F2E8CF40E252E00F
:1006200020E639E00E948F02089583E091E069E0BE
:1006300070E00E940E0308951F920F920FB60F9262
:1006400011242F933F934F935F936F937F938F93D7
:100650009F93AF93BF93EF93FF9380912E0187FFFA
:1006600005C010928500109284002BC020912E01AD
:10067000332727FD30958091020190E02817390734
:1006800004F580912E01992787FD9095FC01EE0FCE
:10069000FF1FE80FF91FE65FFE4F808186FF11C044
:1006A00080912E01992787FD9095FC01EE0FFF1F89
:1006B000E80FF91FE65FFE4F80818F7360E00E94B4
:1006C000FC0480912E018F5F80932E0120912E01DA
:1006D000332727FD30958091020190E028173907D4
:1006E0000CF04EC080912E018C300CF049C020914E
:1006F00084003091850080912E01992787FD909587
:10070000FC01EE0FFF1FE80FF91FE65FFE4F81812E
:100710009281280F391F309389002093880080919F
:100720002E01992787FD9095FC01EE0FFF1FE80F22
:10073000F91FE65FFE4F808186FF2AC080912E015F
:10074000992787FD9095FC01EE0FFF1FE80FF91F19
:10075000E65FFE4F80818F7361E00E94FC0418C049
:1007600080E49CE905C08091840090918500049606
:1007700090938900809388008FEF80932E0108C0AA
:10078000809184009091850084549C4948F3EBCF7C
:10079000FF91EF91BF91AF919F918F917F916F9159
:1007A0005F914F913F912F910F900FBE0F901F902F
:1007B00018951F920F920FB60F9211242F933F930B
:1007C0008F939F93AF93BF938091330190913401A6
:1007D000A0913501B0913601309137010196A11DEC
:1007E000B11D232F2D5F2D3720F02D570196A11D10
:1007F000B11D209337018093330190933401A0936E
:100800003501B093360180912F0190913001A09174
:100810003101B09132010196A11DB11D80932F01CC
:1008200090933001A0933101B0933201BF91AF9109
:100830009F918F913F912F910F900FBE0F901F901E
:1008400018959B01AC017FB7F89480912F0190918E
:100850003001A0913101B091320166B5A89B05C06D
:100860006F3F19F00196A11DB11D7FBFBA2FA92FAF
:10087000982F8827860F911DA11DB11D62E0880F5A
:10088000991FAA1FBB1F6A95D1F7BC012DC0FFB7E6
:10089000F89480912F0190913001A0913101B09195
:1008A0003201E6B5A89B05C0EF3F19F00196A11DE6
:1008B000B11DFFBFBA2FA92F982F88278E0F911D2A
:1008C000A11DB11DE2E0880F991FAA1FBB1FEA9569
:1008D000D1F7861B970B885E9340C8F221503040B9
:1008E0004040504068517C4F21153105410551056C
:1008F00071F60895789484B5826084BD84B5816072
:1009000084BD85B5826085BD85B5816085BDEEE617
:10091000F0E0808181608083E1E8F0E080818260A6
:100920008083808181608083E0E8F0E08081816065
:100930008083E1EBF0E0808184608083E0EBF0E095
:10094000808181608083EAE7F0E080818460808339
:1009500080818260808380818160808380818068E3
:1009600080831092C1000895982F8E3008F09E5019
:100970009770809100018295880F880F807C892B69
:1009800080937C0080917A00806480937A008091CB
:100990007A0086FDFCCF2091780040917900942F59
:1009A00080E030E0282B392BC9010895482F50E012
:1009B000CA0186569F4FFC0124914A575F4FFA01A6
:1009C00084918823C1F0E82FF0E0EE0FFF1FE85973
:1009D000FF4FA591B491662341F49FB7F8948C9191
:1009E000209582238C939FBF08959FB7F8948C9194
:1009F000822B8C939FBF0895482F50E0CA018255E7
:100A00009F4FFC012491CA0186569F4FFC013491EF
:100A10004A575F4FFA019491992309F440C0222369
:100A200031F1233021F4809180008F7705C024308C
:100A300031F4809180008F7D8093800018C0213038
:100A400019F484B58F7704C0223021F484B58F7DEA
:100A500084BD0DC0263021F48091B0008F7705C091
:100A6000273029F48091B0008F7D8093B000E92F6A
:100A7000F0E0EE0FFF1FEE58FF4FA591B4916623F3
:100A800041F49FB7F8948C91309583238C939FBF4A
:100A900008959FB7F8948C91832B8C939FBF0895F2
:100AA0000E947A040E9415030E944002FDCF2F92FB
:100AB0003F924F925F926F927F928F929F92AF92EE
:100AC000BF92CF92DF92EF92FF920F931F93DF932B
:100AD000CF93CDB7DEB73B014C0119012A016D89D7
:100AE0007E898F89988D6A197B098C099D09621A04
:100AF000730A840A950AA40193010E94A005E218D2
:100B0000F30804091509A80197010E94DE052A0DC2
:100B10003B1D4C1D5D1DB901CA01CF91DF911F9195
:100B20000F91FF90EF90DF90CF90BF90AF909F908C
:100B30008F907F906F905F904F903F902F9008958F
:100B4000629FD001739FF001829FE00DF11D649FB1
:100B5000E00DF11D929FF00D839FF00D749FF00D3D
:100B6000659FF00D9927729FB00DE11DF91F639FDE
:100B7000B00DE11DF91FBD01CF0111240895991B8E
:100B800079E004C0991F961708F0961B881F7A9584
:100B9000C9F78095089597FB092E07260AD077FD9F
:100BA00004D027D006D000201AF4709561957F4FAD
:100BB0000895F6F7909581959F4F089597FB092E1C
:100BC00005260ED057FD04D028D00AD0001C38F4DA
:100BD00050954095309521953F4F4F4F5F4F089569
:100BE000F6F790958095709561957F4F8F4F9F4F49
:100BF0000895AA1BBB1B51E107C0AA1FBB1FA61764
:100C0000B70710F0A61BB70B881F991F5A95A9F7B5
:100C100080959095BC01CD010895A1E21A2EAA1BE2
:100C2000BB1BFD010DC0AA1FBB1FEE1FFF1FA2179C
:100C3000B307E407F50720F0A21BB30BE40BF50B99
:100C4000661F771F881F991F1A9469F76095709522
:100C5000809590959B01AC01BD01CF010895EE0FE9
:0E0C6000FF1F0590F491E02D0994F894FFCF4A
:020C6E00010083
:00000001FF
