:100000000C9434000C9446000C9446000C9446006A
:100010000C9446000C9446000C9446000C94460048
:100020000C9446000C9446000C9446000C94460038
:100030000C9446000C9446000C9446000C94460028
:100040000C9451000C9446000C9446000C9446000D
:100050000C9446000C9446000C9446000C94460008
:100060000C9446000C94460011241FBECFEFD4E040
:10007000DEBFCDBF11E0A0E0B1E001C01D92A9300C
:10008000B107E1F70E944A000C94D3000C940000E1
:10009000089508950E9499000E9448000E94490016
:1000A000FDCF1F920F920FB60F9211242F933F9303
:1000B0008F939F93AF93BF9380910401909105011B
:1000C000A0910601B0910701309108010196A11D90
:1000D000B11D232F2D5F2D3720F02D570196A11D27
:1000E000B11D209308018093040190930501A09312
:1000F0000601B09307018091000190910101A09148
:100100000201B09103010196A11DB11D8093000170
:1001100090930101A0930201B0930301BF91AF91AD
:100120009F918F913F912F910F900FBE0F901F9035
:100130001895789484B5826084BD84B5816084BD4F
:1001400085B5826085BD85B5816085BDEEE6F0E050
:10015000808181608083E1E8F0E08081826080833B
:10016000808181608083E0E8F0E08081816080832D
:10017000E1EBF0E0808184608083E0EBF0E080815F
:1001800081608083EAE7F0E0808184608083808101
:1001900082608083808181608083808180688083A9
:0A01A0001092C1000895F894FFCFFB
:00000001FF
